:09118F00007F027EC7DEFEDFFCDA
:011198002234
:04111E00AD07AC0667
:10112200E4FBFAC3EB9DEA9C500A12118F0BBB0041
:04113200010A80EF3F
:011136002296
:100EC1001210FF12115012000ED2AFC2A49000E214
:100ED1007401F0C2A19000E2E0600A1208FE9000E5
:100EE100E2EFF080F09000E27401F09000E2E06047
:100EF1000A1208479000E2EFF080F0D2A19000E2E0
:100F01007401F0120E499000D4E0B4011BE4F01218
:100F110010189000E2EFF0600FE0FFB40104D2A4DA
:0D0F21008006EFB40202C2A4120F2E80D988
:090A53004200D200004100D40071
:1010FF0053877F759850538EBF538EFE53890F437E
:0F110F008920758BFD758DFDC2ABD28ED2AC22BF
:0C118300C2AC8F993099FDC299D2AC2209
:101059009000ECEBF0A3EAF0A3E9F09000ECE0FBE0
:10106900A3E0FAA3E0F912050660179000ECA3E4E7
:1010790075F001120535A9F0FA120506FF12118360
:0310890080D922E9
:03002300020DC407
:100DC400C0E0C0F0C083C082C0D075D000C000C0F5
:100DD40001C002C003C004C005C006C00730984566
:100DE400C298C39000D3E094649000D2E094005081
:100DF4002A1200039000D2E07002A3E07002D28CA9
:100E04009000D2E475F001120535FE746E25F0F5FC
:100E14008274003EF583E599F0800A9000D2E044A4
:100E240080F0A3E0F0309902C299D007D006D00533
:100E3400D004D003D002D001D000D0D0D082D0834F
:050E4400D0F0D0E03207
:100D3C0041540D0A004F4B0041542B4350494E3F38
:100D4C000D0A0052454144590041542B435245472A
:100D5C003F0D0A00302C3100302C350041542B4310
:100D6C0053510D0A0041542B434D47463D310D0A5A
:100D7C000041542B435343533D2247534D220D0AFC
:100D8C000041542B435343413F0D0A0041542B4324
:100D9C00534D503D31372C3136372C302C323431C9
:100DAC000D0A0041542B434E4D493D322C320D0A55
:080DBC00006F6E006F66660017
:0B0F8C009000ECEBF0A3EAF0A3E9F00A
:100F97007B007A0079009000D2E0FEA3E0FFEE30FC
:100FA700E72C547FFE746E2FF58274003EF583E4C0
:100FB700F09000ECE0F9A3E0FAA3E09000F2C9F0AA
:0E0FC700A3EAF0A3E9F00B7A00796E12078816
:010FD50022F9
:100AF7009000E674FFF0A3740DF0A37441F0A3E433
:0B0B0700F0A37464F07BFF7A0D793CD2
:100B1200E49000EBF09000D2F0A3F09000D504F046
:100B22001210599000E6E0FBA3E0FAA3E0F9EA49CB
:100B32004B604FA3E07002A3E060479000E974FFAE
:100B4200F5F012051F45F0602A7F0A7E0012111E81
:100B52009000D2E030E7E49000E6E0FBA3E0FAA3E5
:100B6200E0F9120F8CEA494B7009E49000D2F0A32D
:100B7200F080C89000E9E07002A3E070059000EBFD
:100B820004F0E49000D2F0A3F09000D5F09000EBD6
:020B9200E0FF82
:010B9400223E
:1008FE00120AF7EF6009120AF7EF60037FFF2290EA
:10090E0000E674FFF0A3740DF0A3744FF0A374010E
:10091E00F0A37490F07BFF7A0D7944120B12EF6006
:10092E00037FFE229000E674FFF0A3740DF0A37413
:10093E0060F0A37401F0A37490F07BFF7A0D7955EB
:10094E00120B12EF60529000F274FFF0A3740DF0D0
:10095E00A37464F07B017A00796E120788E94A4B22
:10096E0070369000E674FFF0A3740DF0A37441F09E
:10097E00A3E4F0A374C8F07BFF7A0D7968120B1212
:10098E00EF701278FB7C007D017B017A00797DFE91
:0B099E007F021204E07FFD227F002298
:100847009000E674FFF0A3740DF0A37441F0A3E4E5
:10085700F0A37464F07BFF7A0D7971120B12EF60CD
:10086700037FFA229000E674FFF0A3740DF0A374DF
:1008770041F0A3E4F0A37464F07BFF7A0D797D1255
:100887000B12EF60037FF9229000E674FFF0A37468
:100897000DF0A37441F0A3E4F0A37464F07BFF7A36
:1008A7000D798D120B12EF60037FF8229000E6742A
:1008B700FFF0A3740DF0A37441F0A3E4F0A37464F4
:1008C700F07BFF7A0D7998120B12EF60037FF72206
:1008D7009000E674FFF0A3740DF0A37441F0A3E455
:1008E700F0A374C8F07BFF7A0D79AF120B12EF609B
:0708F700037FF4227F0022C1
:101018009000F274FFF0A3740DF0A374BDF07B018F
:101028007A00796E120788E94A4B60037F012290A3
:1010380000F274FFF0A3740DF0A374C0F07B017A82
:1010480000796E120788E94A4B60037F02227F000D
:011058002275
:0511B700434D543A0015
:10115000538E7F5389F0438901E4F58A758CDCC294
:061160008DD2A9C28C2211
:07000300E4F58A758CDC2294
:03000B00020CB133
:100CB100C0E0C0F0C083C082C0D075D000C000C009
:100CC10001C002C003C004C005C006C007C28C90A9
:100CD10000D2E04480FEA3E0FF9000D2EEF0A3EF4B
:100CE100F0FFEE547FFE746E2FF58274003EF583A3
:100CF100E4F09000D5E070289000D2F0A3F09000CD
:100D0100F274FFF0A37411F0A374B7F07B017A00C1
:100D1100796E120788E94A4B60069000D47401F09D
:100D2100D007D006D005D004D003D002D001D00026
:0B0D3100D0D0D082D083D0F0D0E032D0
:0511750012117AD2A363
:08117A007F017E02DEFEDFFAB8
:01118200224A
:0F116600D2A2121175C2A212117AC2A302117A7B
:0A119900C2A2121175D2A202117A4F
:020FD600AD0765
:100FD800E4FBFAEDC4131313540124FF92A2ED2588
:100FE800E0FD121175C2A312117A0BEBB408E4D21A
:100FF800A212117AD2A330A20F0AEAD394C840F6FB
:0F100800C2A312117A7F0022C2A312117A7F01B4
:0110170022B6
:1010B600E4FDFCD2A212117AD2A312117AEC25E039
:1010C600FCA2A2E4334CFC12117AC2A312117A0DCF
:0610D600EDB408E4AF04D4
:0110DC0022F1
:10113700AC05A9071211667FA0120FD6AF01120FD7
:09114700D6AF04120FD602119973
:0210DD00AC075E
:1010DF001211667FA0120FD6AF04120FD61211662F
:0F10EF007FA1120FD61210B6AD07121199AF05DF
:0110FE0022CF
:10108C00C2A68F807F017E0012109DD2A57F057EA7
:01109C000053
:10109D00D3EF9400EE9400400F7DC77C01DCFEDDA4
:0810AD00FAEF1F70EB1E80E852
:0110B5002218
:0A11A300C2A5C2A712108CC2A5223B
:0A11AD00C2A5D2A712108CC2A52221
:10000E007F381211A37F0C1211A37F061211A37F4A
:04001E00010211A327
:100A5C004C00000000000000000000000000004CF2
:100A6C00000C0000000000000000000000004C0022
:100A7C00180000000000000000000000004C0024E2
:100A8C0000000000000000000000000044003130B5
:100A9C003030304100351441003001410036014105
:100AAC00003701410038014B0039706173732069C4
:100ABC006E7075743A490044706173732073657479
:100ACC003A4A004D6F72696720706173733A4F0038
:100ADC00576F7269672070617373206572726F72E1
:0A0AEC00470066737563636573735A
:100E49007F011210DD900024E4F0A3EFF07F647EAF
:100E59000012111E7F031210DD900026E4F0A3EFAB
:100E6900F07F647E0012111E7F051210DD900028AC
:100E7900E4F0A3EFF07F647E0012111E7F071210C9
:100E8900DD90002AE4F0A3EFF07F647E0012111ECA
:100E99007F091210DD90002CE4F0A3EFF07F647E4F
:100EA9000012111E7F0B1210DD90002EE4F0A3EF4B
:080EB900F07F647E0002111EAF
:100F2E00C2AF2095167F0A7E0012111E20950990E1
:100F3E0000377401F0120B953095FD20961E7F0A36
:100F4E007E0012111E2096119000367401F0900052
:100F5E0030F0900038F01202B03096FD20971C7FD2
:100F6E000A7E0012111E20970F9000357414F09017
:0E0F7E0000377401F012054B3097FDD2AF2200
:1009A900E49000E5F075900FE590640F7003020A7A
:1009B900527F0A7E0012111EE590640F7003020A2D
:1009C9005275900FAF90EF24F5601224FE60161453
:1009D900601B2407701DE4900035F08016900035E7
:1009E9007401F0800E9000357402F0800690003595
:1009F9007403F07590F0AF90EF2450601324E06019
:100A09001824F0601D24707020900035E0F08019E2
:100A1900900035E02404F08010900035E02408F0BF
:100A29008007900035E0240CF09000E5E0C3648075
:100A390094B25015E59064F0600F7F0A7E001211A0
:090A49001E9000E5E004F080E0DD
:010A52002281
:10054B00E49000E3F07F811211A3E490006DF09032
:10055B00006DE0FFC3940B501774392FF582E43410
:10056B0000F583E0FF1211AD90006DE004F080DF29
:10057B00900037E0605A1209A9900035E0FFC39450
:10058B000A5034EF2430FF9000E3E0FE2431F58273
:10059B00E43400F583EFF0EE24C0FF1211A37F2AA1
:1005AB001211AD900035740BF09000E3E004F0E015
:1005BB00C394044002E4F0900035E0B40AB2E49036
:1005CB000037F09000357414F07F011211A380A056
:1005DB007F011211A3900031E064317058A3E064E5
:1005EB00327052A3E06433704CA3E0643470467FE6
:1005FB00811211A3E490006DF090006DE0FFC394A5
:10060B0006501CEF25E02424F582E43400F583A387
:10061B00E02430FF1211AD90006DE004F080DA9011
:10062B0000377401F07FE87E0312111E7FE87E0312
:10063B0012111E80317F801211A3E490006DF09097
:10064B00006DE0FFC3940F501774572FF582E434FD
:10065B0000F583E0FF1211AD90006DE004F080DF38
:10066B009000377401F07FE87E0312111E7F011298
:02067B0011A3C9
:01067D00225A
:10067E00900024E0FEA3E0FF900000E06E7003A364
:10068E00E06F600302071A900026E0FEA3E0FF90E1
:10069E000002E06E7003A3E06F7071900028E0FE20
:1006AE00A3E0FF900004E06E7003A3E06F705D9016
:1006BE00002AE0FEA3E0FF900006E06E7003A3E0C8
:1006CE006F704990002CE0FEA3E0FF900008E06EF2
:1006DE007003A3E06F703590002EE0FEA3E0FF9054
:1006EE00000AE0B50626A3E0B50721D2A47FC51205
:1006FE0011A37F591211AD7FE87E0312111E7FE800
:10070E007E0312111E7F011211A380687FC5121184
:10071E00A37F4E1211AD9000377401F09000357426
:10072E0014F07FE87E0312111E7F011211A39000B8
:10073E0030E004F0900030E0D394035005120B9596
:10074E0080F2900030E06404702FC2A49000E4F0B8
:10075E00C2A07FF47E0112111ED2A07FF47E011280
:10076E00111E9000E4E004F0E0C3943C40E29000DF
:09077E00307405F0E4900037F03E
:01078700224F
:100B9500E49000E3F07F811211A3E490006DF090E2
:100BA500006DE0FFC3940B501774392FF582E434C0
:100BB50000F583E0FF1211AD90006DE004F080DFD9
:100BC500900037E060591209A9900035E0FFC39401
:100BD5000A50359000E3E0FD25E02400F582E43479
:100BE50000F583E4F0A3EFF0ED24C0FF1211A37F1D
:100BF5002A1211AD900035740BF09000E3E004F07B
:100C0500E0C394064002E4F0900035E0B40AB11266
:0F0C1500067E9000357414F07F011211A380A1A8
:010C240022AD
:10002600E49000E4F07F811211A3E490006DF0905B
:10003600006DE0FFC39409501774442FF582E43431
:1000460000F583E0FF1211AD90006DE004F080DF53
:10005600900036E070030202AF1209A9900035E065
:10006600FFC3940A503A9000E4E0FD25E0240CF525
:1000760082E43400F583E4F0A3EFF0ED24C0FF1230
:1000860011A3900035E02430FF1211AD90003574B5
:100096000BF09000E4E004F0E0C394064002E4F0C4
:1000A600900035E0B40AA97414F07F011211A37F01
:1000B600811211A3E490006DF090006DE0FFC394EF
:1000C60009501774442FF582E43400F583E0FF12DB
:1000D60011AD90006DE004F080DF900036E0605EC8
:1000E6001209A9900035E0FFC3940A503A9000E443
:1000F600E0FD25E02424F582E43400F583E4F0A352
:10010600EFF0ED24C0FF1211A3900035E02430FF7C
:100116001211AD900035740BF09000E4E004F0E0AD
:10012600C394064002E4F0900035E0B40AACE4A3C0
:10013600F09000357414F07F011211A3809C90009A
:100146000CE0FEA3E0FF900024E06E7003A3E06FD6
:10015600600302026590000EE0FEA3E0FF90002619
:10016600E06E7003A3E06F6003020265900010E08A
:10017600FEA3E0FF900028E06E7003A3E06F60032B
:10018600020265900012E0FEA3E0FF90002AE06EF6
:100196007003A3E06F6003020265900014E0FEA303
:1001A600E0FF90002CE06E7003A3E06F6003020294
:1001B60065900016E0FEA3E0FF90002EE06E70034F
:1001C600A3E06F600302026590003804F07F80129E
:1001D60011A3E490006DF090006DE0FFC39407500A
:1001E6001774662FF582E43400F583E0FF1211AD33
:1001F60090006DE004F080DF900024A3E0FD7F0115
:100206001211377F647E0012111E900026A3E0FDB6
:100216007F031211377F647E0012111E900028A3FF
:10022600E0FD7F051211377F647E0012111E9000DB
:100236002AA3E0FD7F071211377F647E0012111E8C
:1002460090002CA3E0FD7F091211377F647E001217
:10025600111E90002EA3E0FD7F0B12113780349003
:1002660000387401F07F801211A3E490006DF090C5
:10027600006DE0FFC3940F501774572FF582E434D6
:1002860000F583E0FF1211AD90006DE004F080DF11
:10029600120E497FE87E0312111E7FE87E031211BB
:0902A6001E7F011211A302005693
:0102AF00222C
:1002B000E49000E3F07F811211A3E490006DF090D0
:1002C000006DE0FFC3940A5017744D2FF582E4349B
:1002D00000F583E0FF1211AD90006DE004F080DFC7
:1002E000900038E060601209A9900035E0FFC394E7
:1002F0000A503A9000E3E0FD25E02418F582E4344A
:1003000000F583E4F0A3EFF0ED24C0FF1211A390F9
:100310000035E02430FF1211AD900035740BF090E1
:1003200000E3E004F0E0C394064002E4F0900035FE
:10033000E0B40AACE4900038F09000357414F07F1B
:10034000011211A3809A900024E0FEA3E0FF900028
:1003500018E06E7003A3E06F7071900026E0FEA3BA
:10036000E0FF90001AE06E7003A3E06F705D9000F4
:1003700028E0FEA3E0FF90001CE06E7003A3E06F96
:10038000704990002AE0FEA3E0FF90001EE0B50651
:100390003AA3E0B5073590002CE0FEA3E0FF900003
:1003A00020E0B50626A3E0B5072190002EE0FEA3CD
:1003B000E0FF900022E0B50612A3E0B5070D900023
:1003C000387401F0FF1211A3020026900038740166
:1003D000F07F801211A3E490006DF090006DE0FFBB
:1003E000C3940F501774572FF582E43400F583E05F
:1003F000FF1211AD90006DE004F080DF7FE87E0316
:0F04000012111E7FE87E0312111E7F011211A33D
:01040F0022CA
:03000000020C25CA
:0C0C2500787FE4F6D8FD758107020C6CA6
:10041000E709F608DFFA8046E709F208DFFA803ECE
:1004200088828C83E709F0A3DFFA8032E309F608BB
:10043000DFFA8078E309F208DFFA807088828C8323
:10044000E309F0A3DFFA806489828A83E0A3F608D7
:10045000DFFA805889828A83E0A3F208DFFA804CB1
:1004600080D280FA80C680D4806980F28033801088
:1004700080A680EA809A80A880DA80E280CA8033F1
:1004800089828A83ECFAE493A3C8C582C8CCC58369
:10049000CCF0A3C8C582C8CCC583CCDFE9DEE78039
:1004A0000D89828A83E493A3F608DFF9ECFAA9F0B8
:1004B000EDFB2289828A83ECFAE0A3C8C582C8CC0E
:1004C000C583CCF0A3C8C582C8CCC583CCDFEADE27
:1004D000E880DB89828A83E493A3F208DFF980CC89
:1004E00088F0EF60010E4E60C388F0ED2402B40482
:1004F0000050B9F582EB2402B4040050AF23234529
:06050000822390046073E9
:10050600BB010689828A83E0225002E722BBFE02F3
:09051600E32289828A83E4932226
:10051F00C5F0F8A3E028F0C5F0F8E5821582700267
:06052F001583E038F02204
:10053500A3F8E0C5F025F0F0E58215827002158379
:06054500E0C838F0E822D6
:100788009000EFEBF0A3EAF0A3E9F0A3E0FBA3E00D
:10079800FAA3E0F912050670030208349000EFE0AE
:1007A800FBA3E0FAA3E0F9120506700302084090E3
:1007B80000F2E0F9A3E0FAA3E0A3C9F0A3EAF0A3EA
:1007C800E9F09000EFA3E0FAA3E0F99000F8EBF06D
:1007D800A3EAF0A3E9F09000F5E0FBA3E0FAA3E0B8
:1007E800F9120506FF60269000F8E0FBA3E0FAA3E3
:1007F800E0F91205066F70159000F675F001120504
:100808001F9000F9E475F00112051F80C99000F5EA
:10081800E0FBA3E0FAA3E0F91205067002800D9050
:1008280000F0E475F00112051F0207A49000EFE044
:0F083800FBA3E0FAA3E0F9227B007A007900220B
:100C3100020EC1E493A3F8E493A34003F68001F20A
:100C410008DFF48029E493A3F85407240CC8C333C4
:100C5100C4540F4420C8834004F456800146F6DF93
:100C6100E4800B0102040810204080900A53E47EC6
:100C7100019360BCA3FF543F30E509541FFEE49388
:100C8100A360010ECF54C025E060A840B8E493A34F
:100C9100FAE493A3F8E493A3C8C582C8CAC583CA7A
:100CA100F0A3C8C582C8CAC583CADFE9DEE780BE32
:010AF60000FF
:00000001FF
